:020000040800F2
:1000000030AD002049010008D91B0008651900081F
:10001000D51B0008490E0008CF3100080000000081
:10002000000000000000000000000000D5270008CC
:100030000317000800000000091D00084D2A0008F1
:100040006301000863010008630100086301000800
:1000500063010008630100086301000863010008F0
:1000600063010008630100086301000863010008E0
:1000700063010008630100086301000863010008D0
:1000800063010008630100086301000863010008C0
:1000900063010008630100086301000863010008B0
:1000A00063010008630100086301000863010008A0
:1000B000B52A0008F12A000863010008630100085E
:1000C0006301000863010008630100086301000880
:1000D000630100086D2E0008630100086301000839
:1000E0006301000863010008630100086301000860
:1000F0006301000863010008630100086301000850
:100100006301000863010008192B0008630100085F
:10011000630100086301000863010008630100082F
:1001200063010008630100083D1400086301000832
:10013000DFF810D000F078FD00480047113B0008C0
:10014000AFF3008030AD00200648804706480047E6
:10015000FEE7FEE7FEE7FEE7FEE7FEE7FEE7FEE777
:10016000FEE7FEE7552A0008310100082DE9FF4FA0
:1001700095B00C464168009181680F91006813901A
:100180001898179D800814900F98006809900F9890
:1001900050F8041F089150F8041F079150F8041FED
:1001A0000B91416808300A910F900098D0E9006BDC
:1001B000D0E90289DDF850A0BAF1000F7DD000BF70
:1001C00054F8040B069049460A9800F096F90C90F2
:1001D00041460B9800F091F903905946079800F0BA
:1001E0008CF907463146089800F087F98146069950
:1001F000099800F082F9494600F027F9394600F0E5
:1002000024F9039900F021F90C9900F01EF945F842
:10021000040B074654F804BB41460A9800F06DF9F8
:100220000C9039460B9800F068F9804631460798E3
:1002300000F063F981460699089800F05EF90646D9
:100240005946099800F059F9314600F0FEF8494640
:1002500000F0FBF8414600F0F8F80C9900F0F5F8D2
:1002600045F8040B804654F8046B39460A9800F0B0
:1002700044F90E9041460B9800F03FF90C90DDE9EF
:10028000061000F03AF981465946089800F035F911
:1002900007463146099800F030F9394600F0D5F8A4
:1002A000494600F0D2F80C9900F0CFF80E9900F012
:1002B000CCF8814645F8040B00E02EE054F8047BAE
:1002C00041460A9800F019F90C9049460B9800F045
:1002D00014F90E905946079800F00FF983463146FD
:1002E000089800F00AF980463946099800F005F9A7
:1002F000414600F0AAF8594600F0A7F80E9900F020
:10030000A4F80C9900F0A1F8B346804645F8040B18
:100310003E46BAF1010A7FF453AF189810F0030774
:1003200032D0B7F1004F44D2002F2DDD54F804AB8A
:1003300049460A9800F0E1F80C9041460B9800F00D
:10034000DCF803905946079800F0D7F88346314609
:10035000089800F0D2F881465146099800F0CDF88F
:10036000494600F072F8594600F06FF8039900F022
:100370006CF80C9900F069F8B346C14645F8040BD7
:10038000564680467F1ED1D100980660009840F8FE
:1003900004BF40F8048FC0F8049008300090139810
:1003A000179C401E254613907FF4EEAE19B0BDE8B1
:1003B000F08F54F804AB49460A9800F09EF80C9070
:1003C00041460B9800F099F803905946079800F0C1
:1003D00094F883463146089800F08FF881465146DC
:1003E000099800F08AF8494600F02FF8594600F0C5
:1003F0002CF8039900F029F80C9900F026F8B34680
:10040000C14645F8040B564680467F1ED1D1BBE756
:1004100070B58260016004461D460901184600F06F
:1004200009F8656070BDD2B201E000F8012B491EE9
:10043000FBD270470022F6E710B513460A46044681
:100440001946FFF7F0FF204610BDF0B480EA010224
:10045000D40F4200B2EB410F02D2024608461146C9
:100460004A0042D0C30DDDB2C1F3C752AD1A202DF0
:1004700035DAC1F3160141F4000204B15242C5F16C
:10048000200602FA06F12A411044B3EBD05F23D0D4
:10049000C4B1012DA0EBC35009DCF0BC4FF0004209
:1004A00002EAC352DBB200F5000000F002BB4000DC
:1004B00000F1807000EBC350A0F1807040EAD17071
:1004C000490009E0490841EAC071A0EBC35000F5BA
:1004D0000000400800EBC350F0BC00F0E1BA6142FC
:1004E000012202EB4101001BF6E7F0BC704781F0EE
:1004F0000041AAE780F00040A7E780EA010210B5BA
:1005000002F00043400022D04A001FD0010E01EB50
:100510001261C0F35600C2F3560240F4000042F4E8
:100520000002A0FB022000047F39140400D0401C0C
:1005300050EA124001D44000491EC2B20C0604EB3E
:10054000D010401C4008802A02D003E0002010BDDB
:1005500020F00100002900DA0020184310BD30B45B
:1005600080EA010202F0004530F0004221F0004034
:1005700013D090B1C30DD40DC2F31601C0F3160011
:10058000E41A41F4000140F400027D34914201D3A9
:10059000641C00E04900002C02DA30BC00207047E7
:1005A0004FF400000023914201D3891A034340080D
:1005B0004FEA4101F7D151B1914202D14FF00041D0
:1005C00005E002D24FF0010101E06FF0010103EB01
:1005D000C450284430BC00F063BA2DE9FE4F804679
:1005E00081EA0300C00F0C46009021F0004123F087
:1005F0000045B8EB0200A94105D24046214690468D
:100600001C460B46024623F00040104347D0270DFE
:10061000C7F30A00C3F30A510290401A0190402820
:100620006BDAC3F3130040F4801B0098924620B1AC
:100630000023D2EB030A63EB0B0B01985946C0F180
:100640004002504600F00BFA06460D465046594609
:10065000019A00F013FA10EB08006141002487EAC8
:10066000115284EAE7731A4340D0009A62B3019AA8
:10067000012A4FEA075215DC001B61EB02014FF023
:10068000004202EA0752CDE90042001C41F5801108
:1006900032462B4600F04AFA03B0BDE8F08F4046E0
:1006A0002146F9E7001B61EB0201001C41F58013B4
:1006B00000185B412018A2F5001747EB030140EA40
:1006C000D570B6196D4111E06D084FEA360645EA5E
:1006D000C0754FEA0752001B61EB0201001C41F597
:1006E000801149084FEA30000019514132462B462B
:1006F00003B0BDE8F04F00F00ABA009801224000B4
:100700000023D0EB020263EBE073009821464FEA2E
:10071000E074B8EB000061EB0401E9E783F000430B
:100720005BE781F0004158E72DE9FE4F81EA0304C1
:1007300004F0004421F0004100944FF0000B23F03E
:10074000004350EA01045ED052EA03045BD0C3F3D5
:100750000A54C1F30A552C44A4F2F3340194A0FBCB
:100760000254C1F3130141F48011C3F3130343F4A2
:10077000801301FB024400FB034E840A970A44EAFB
:10078000815447EA8357A4FB076802958D0A05FB4D
:1007900007854FEA932C04FB0C542705029D4FEA72
:1007A000065847EA1637B5EB08056EEB070C870EBF
:1007B000920E47EA811742EA8312A7FB0201B6EBC9
:1007C0000B0164EB00042B0D43EA0C335E1844EB81
:1007D0001C50DA465146E7FB0201C5F313044FEA09
:1007E0000B3343EA14534FEA0432019C43EA0603F5
:1007F000A4F10C040294009CCDE900B400F096F939
:1008000003B0BDE8F08F00200146F9E72DE9F04D77
:1008100081EA030404F0004B21F0004514464FF038
:10082000000A23F0004150EA050220D054EA0102F8
:100830001DD0C5F30A570246C5F31303C1F31300D5
:10084000C1F30A5640F4801543F48013A7EB060861
:10085000101BD64608F2FD3873EB050002D308F1F1
:10086000010801E092185B41B8F1000F03DA0020A3
:100870000146BDE8F08D00204FF480110646844605
:100880000EE0171B73EB050705D3121B63EB050383
:1008900006434CEA010C49084FEA300092185B41CC
:1008A00050EA0107EDD152EA030012D082EA0400B7
:1008B00083EA0501084305D0101BAB4106D2012293
:1008C000002306E000224FF0004302E06FF0010237
:1008D00053101AEB06004CEB085110EB0A0041EBE9
:1008E0000B01BDE8F04D00F012B9C10F80EAE070D5
:1008F0000844CA079623002100F0DBB80EB540F289
:10090000334102910021CDE900110A460B4600F067
:100910000DF903B000BD00F0004220F00040C10D11
:10092000C0F3160040F400007F2901DA0020704770
:10093000962903DCC1F19601C84001E09639884050
:10094000002AF4D04042704700F0004230F00040EE
:100950000AD0C10D01F56071C0F3160042EA0151E1
:10096000C20840071143704700200146704701F05C
:10097000004330B421F0004150EA010206D00A0DD4
:10098000A2F56072C1F31301002A02DC30BC002022
:100990007047440F44EAC104C100E01830BC00EBCA
:1009A000C25000F07DB80000002801DBC0F100401B
:1009B000002901DBC1F1004181427047002801DBC1
:1009C000C0F10040002901DBC1F1004188427047BD
:1009D00030B50B46014600202022012409E021FA0F
:1009E00002F59D4205D303FA02F5491B04FA02F50C
:1009F0002844151EA2F10102F1DC30BD2DE9F05FA3
:100A00000546002092469B4688460646814640247D
:100A10001BE0284641464746224600F017F9534658
:100A20005A46C01A914110D311461846224600F08A
:100A300016F82D1A67EB01084F46224601200021C7
:100A400000F00DF817EB00094E41201EA4F101043F
:100A5000DFDC484631462A464346BDE8F09F202A5F
:100A600004DB203A00FA02F1002070479140C2F105
:100A7000200320FA03F3194390407047202A06DB35
:100A8000CB17203A41FA02F043EAE07306E041FA5C
:100A900002F3D040C2F1200291400843194670474A
:100AA0000029A8BF7047401C490008BF20F0010082
:100AB000704710B4B0FA80FC00FA0CF050EA010460
:100AC00004BF10BC704749B1CCF1200421FA04F4F2
:100AD00011FA0CF118BF012121430843A3EB0C01CB
:100AE000CB1D4FEA00614FEA102042BF002010BC2E
:100AF000704700EBC35010440029A4BF10BC7047DE
:100B0000401C490008BF20F0010010BC704710B520
:100B1000141E73F1000408DA401C41F10001921820
:100B20005B411A4301D120F0010010BD2DE9F04DC9
:100B300092469B4611B1B1FA81F202E0B0FA80F21E
:100B400020329046FFF78BFF04460F4640EA0A002A
:100B500041EA0B0153465A46084313D0114653EA63
:100B6000010019D0C8F14002504600F06FF8054668
:100B70000E46504659464246FFF771FF084305D0DE
:100B8000012004E020463946BDE8F08D00200543F1
:100B900046EAE0762C4337430A986305E40AA0EB63
:100BA00008000022FD0A44EA47540A3002D500201A
:100BB0000146E9E7010510196941DDE90845001919
:100BC0006941BDE8F04DA2E7C1F30A52C1F3130138
:100BD00040F2FF3341F480119A4202DA00200146CC
:100BE000704740F233439A42A2F2334202DC52424F
:100BF00000F02CB8FFF733BF30B5041E71F10004CC
:100C000004DB4FF00044404264EB0101141E73F119
:100C1000000405DB1C464FF00043524263EB040323
:100C2000994208BF904230BD064C074D06E0E0688F
:100C300040F0010394E8070098471034AC42F6D323
:100C4000FFF77AFA2C3D00084C3D0008202A04DB0F
:100C5000203A21FA02F00021704721FA02F3D04035
:100C6000C2F12002914008431946704770B58C18B4
:100C700010F8015B15F0070301D110F8013B2A11B0
:100C800006D110F8012B03E010F8016B01F8016B9D
:100C90005B1EF9D12B0705D40023521E0DD401F899
:100CA000013BFAE710F8013BCB1A921C03E013F862
:100CB000015B01F8015B521EF9D5A142D8D3002097
:100CC00070BD21B1826842F00102826003E0826857
:100CD00022F001028260704721B1826842F4807282
:100CE000826003E0826822F480728260704721B1E2
:100CF000826842F48012826003E0826822F48012EB
:100D000082607047014600208A6802F004020AB13E
:100D1000012000E000207047014600208A6802F0B0
:100D200008020AB1012000E00020704730B50246F9
:100D30000020002350680F4C20400D790C6844EAD5
:100D400005242043506090680B4C2040D1E90254A8
:100D50002C434D7944EA450420439060D06A20F446
:100D600070000C7C641EE4B2234340EA0350D0625E
:100D700030BD0000FFFEF0FFFDF7F1FFF0B50446C7
:100D80000D4600200021092D11DDE068A5F10A06BD
:100D900006EB4607072606FA07F18843A5F10A067F
:100DA00006EB460603FA06F10843E0600CE0206912
:100DB00005EB4507072606FA07F1884305EB4506CC
:100DC00003FA06F108432061072A0FDA606B561E0A
:100DD00006EB86071F2606FA07F18843561E06EB28
:100DE000860605FA06F10843606322E00D2A0FDA51
:100DF000206BD61F06EB86071F2606FA07F18843ED
:100E0000D61F06EB860605FA06F10843206310E0BC
:100E1000E06AA2F10D0606EB86071F2606FA07F127
:100E20008843A2F10D0606EB860605FA06F1084393
:100E3000E062F0BD816841F008018160704781681F
:100E400041F004018160704700BFFEE700200149C6
:100E50000870704729000020002001490870704781
:100E60002800002000B587B04FF4004000F0DAFF02
:100E70000121480201F012F80121102001F00EF8C2
:100E80002020ADF8180000208DF81B0006A91E4890
:100E900000F0ACFC0020019001208DF8080000203B
:100EA0008DF809004FF400200390002004900120E9
:100EB0008DF8140001A91548FFF738FF0723012218
:100EC0000F211248FFF75AFF01211048FFF704FFD6
:100ED00001210E48FFF70BFF01210C48FFF7F1FE3F
:100EE0000A48FFF7A7FF00BF0848FFF715FF0028D3
:100EF000FAD10648FFF7A3FF00BF0448FFF702FF3F
:100F00000028FAD107B000BD0010014000240140C4
:100F100000B585B00121042000F0C0FF0121480781
:100F200000F09CFF1020ADF8100003208DF8120097
:100F300000208DF8130004A90C4800F057FC2C2069
:100F400000900020019002900390694600F04CFA56
:100F50000121002000F032FA0021084600F05EFA7C
:100F60000121002000F016FA05B000BD0008014084
:100F700000B58BB00121084600F060FF114800F079
:100F800097FA11480090114801900020029001202A
:100F9000039000200490802005904000069080007F
:100FA000079020200890C001099000200A9069460F
:100FB000044800F042FB0121024800F06DFA0BB03A
:100FC00000BD0000080002404C24014090020020B7
:100FD00003B58DB00121022000F030FF1A4800F067
:100FE00067FA1A4802900D9803900E980590102009
:100FF0000490002006908020079040000890800018
:10100000099020200A9000020B9000200C9002A969
:101010000D4800F012FB3A208DF8040000208DF8F6
:1010200005008DF8060001208DF8070001A800F0EA
:10103000E1FD01220221044800F0F6FA01210248F4
:1010400000F02AFA0FB000BD3004024008740040DE
:1010500008B50121042000F021FF0121102000F03B
:101060001DFF0220ADF8000048208DF803006946FE
:101070000B4800F0BBFB0420ADF8000048208DF8C1
:1010800003006946064800F0B1FB0120ADF80000FE
:1010900048208DF803006946024800F0A7FB08BD10
:1010A000001001400008014010B54FF4A06000F0AE
:1010B000D9FD10BD10B500F011FF4FF4803000F0E5
:1010C000CFFF01F02BF80446012C24D1102000F0B2
:1010D00073FB022000F07EFB002000F0B5FF002033
:1010E00000F0F0FFA00200F0E1FF4FF4E011200457
:1010F00000F0FAFF012000F0F1FF00BF392000F0FE
:101100007DFF0028FAD0022000F0FCFF00BF00F0B5
:1011100093FF0828FBD110BD08B50121102000F075
:10112000BDFE4FF40050ADF8000003208DF8020022
:1011300010208DF8030069460A4800F057FB012192
:10114000082000F0ABFE0420ADF8000003208DF86D
:10115000020028208DF803006946034800F046FB92
:1011600008BD000000100140000C01407FB505469D
:101170000C460121084600F071FEADF80850ADF8AC
:1011800004400020ADF80A00ADF8060001A94FF0B8
:10119000804001F00DFE01221146900701F0F5FD9F
:1011A0001C208DF8000000208DF8010003208DF830
:1011B000020001208DF80300684600F01BFD0121AC
:1011C000880701F0D0FC7FBD7FB505460C460121A4
:1011D000022000F043FEADF80850ADF804400020B6
:1011E000ADF80A00ADF8060001A90F4801F0E0FDD6
:1011F00020210D4801F0D2FD012211460A4801F0DC
:10120000C4FD1D208DF8000001208DF801008DF82F
:1012100002008DF80300684600F0ECFC0121024852
:1012200001F0A1FC7FBD0000000400403EB5054672
:101230000C460121042000F011FE0C4801F0A0FC36
:10124000ADF80450ADF800400020ADF80600ADF850
:1012500002006946054801F0ABFD2021034801F07A
:101260009DFD0121014801F07EFC3EBD00080040CB
:101270007FB505460C460121082000F0EFFDADF8D2
:101280000850ADF804400020ADF80A00ADF80600A3
:1012900001A90E4801F08CFD012211460B4801F016
:1012A00074FD32208DF8000000208DF8010003202D
:1012B0008DF8020001208DF80300684600F09AFCCA
:1012C0000121024801F04FFC7FBD0000000C0040EE
:1012D00010B586B004460121880300F0DFFD01212E
:1012E000042000F0DBFD4FF40070ADF8140018206E
:1012F0008DF8170003208DF8160005A9224800F08C
:1013000075FA4FF48060ADF8140004208DF81700D2
:1013100005A91D4800F06AFA01A801F0E8FE019451
:101320000020ADF80800ADF80A00ADF80C000C2064
:10133000ADF80E000020ADF8100001A9134801F02F
:1013400061FE25208DF8000001208DF801008DF848
:1013500002008DF80300684600F04CFC012240F2C8
:1013600025510A4801F029FE012240F22771074861
:1013700001F023FE0121054801F0DCFD00200449B5
:10138000087006B010BD00000008014000380140A0
:101390002E00002039B1084A1268012383401A4305
:1013A000054B1A6006E0044A1268012383409A4301
:1013B000014B1A60704700000074004041B1094AB7
:1013C00012684FF4805383401A43064B1A6007E0BB
:1013D000044A12684FF4805383409A43014B1A60C9
:1013E000704700000074004030B5002200230A4C12
:1013F000226840F6FE748440A243D1E900452C43A4
:101400008D682C43CD6844EA050303FA00F42243B7
:10141000014C226030BD00000074004008B500227D
:101420000092054A009200F10802009B1A440092C3
:10143000009A116008BD00000074004010B50B4810
:1014400000F0DCF880B13A2000F01F020121914049
:10145000074A430942F8231000BF064800F00EF87F
:10146000054803C8FFF7B4FD10BD000000020010DE
:1014700080E200E0000100103000002000F0805108
:1014800011B10349086001E002494860704700005B
:10149000040402400000024021B1026842F001024F
:1014A000026004E002684FF6FE731A400260704763
:1014B00001684FF6FE721140016000210160416039
:1014C0008160C1604B49884208D14A49083949685E
:1014D00041F00F01474A083A51608AE0454914310A
:1014E000884208D143490839496841F0F001414A2E
:1014F000083A51607DE03F492831884208D13D4992
:101500000839496841F470613A4A083A516070E01C
:1015100038493C31884208D136490839496841F494
:101520007041344A083A516063E032495031884290
:1015300008D130490839496841F470212D4A083AE8
:10154000516056E02B496431884208D12949083955
:10155000496841F47001274A083A516049E0254939
:101560007831884208D123490839496841F07061CF
:10157000204A083A51603CE01F49884206D1011FC9
:10158000096841F00F01021F116032E01A4914315D
:10159000884208D11849091F096841F0F001164A2C
:1015A000121F116025E014492831884208D11249E0
:1015B000091F096841F470610F4A121F116018E099
:1015C0000D493C31884208D10B49091F096841F493
:1015D0007041094A121F11600BE0074950318842DF
:1015E00007D10549091F096841F47021024A121FF9
:1015F00011607047080002400804024001460020C4
:10160000002201F0805313B1054B1A6801E0054B2D
:101610001A6802EA01030BB1012000E000207047C4
:1016200000040240000002401AB103680B4303604B
:1016300002E003688B430360704710B50022026824
:1016400047F6F0739A430C6A8B6823430C69234373
:101650004C6923438C692343CC6923434C6A23435D
:101660008C6A23431A430260CB6843600B68836033
:101670004B68C36010BD30B50346002016E0B3F9D7
:1016800000509C68645D0C541C88641C24B21C804F
:10169000B3F90040B3F90450AC4201DB00241C80D4
:1016A000441C20B2DC88641E24B2DC80B3F90640FE
:1016B000002C01DD9042E2DB30BD30B50346002056
:1016C00018E0B3F900509C6834F8154021F8104038
:1016D0001C88641C24B21C80B3F90040B3F9045088
:1016E000AC4201DB00241C80441C20B2DC88641E58
:1016F00024B2DC80B3F90640002C01DD9042E0DB2F
:1017000030BD704770B50346002016E00C5CB3F99D
:1017100002609D68AC555C88641C24B25C80B3F99F
:101720000240B3F90450AC4201DB00245C80441C4D
:1017300020B2DC88641C24B2DC80B3F90640B3F923
:101740000450AC4201DA9042E0DB70BD70B5034654
:10175000002018E031F81040B3F902609D6825F8C8
:1017600016405C88641C24B25C80B3F90240B3F973
:101770000450AC4201DB00245C80441C20B2DC88B5
:10178000641C24B2DC80B3F90640B3F90450AC42C7
:1017900001DA9042DEDB70BD10B50120044908700B
:1017A000012240F22771034801F007FC10BD000040
:1017B0002E000020003801400549096821F0100181
:1017C000034A116011460968014311607047000027
:1017D0000020024001460020034A106800F0380053
:1017E0000843106070470000002002402DE9F041DE
:1017F000024600250026002000230024002791F83F
:1018000003C00CF00F0591F803C00CF0100CBCF1F4
:10181000000F03D091F802C04CEA050591F800C012
:10182000BCF1000F31D0146800202BE04FF0010C08
:101830000CFA00F3B1F800C00CEA03069E4220D176
:1018400083004FF00F0C0CFA03F7BC4305FA03FCBE
:101850004CEA040491F803C0BCF1280F06D14FF004
:10186000010C0CFA00FCC2F814C00AE091F803C0A5
:10187000BCF1480F05D14FF0010C0CFA00FCC2F886
:1018800010C0401C0828D1D31460B1F800C0BCF1CE
:10189000FF0F34DD546800202EE000F1080C4FF0FB
:1018A000010808FA0CF3B1F800C00CEA03069E42E6
:1018B00021D183004FF00F0C0CFA03F7BC4305FA5B
:1018C00003FC4CEA040491F803C0BCF1280F05D1D5
:1018D00000F1080C08FA0CF8C2F8148091F803C063
:1018E000BCF1480F07D100F1080C4FF0010808FACD
:1018F0000CF8C2F81080401C0828CED35460BDE814
:10190000F0810246002093680B400BB1012000E0FB
:10191000002070470AB1016100E04161704700009A
:101920000148007870470000290000200148007835
:101930007047000028000020004870470001002088
:10194000004870473800002000487047C801002058
:1019500003490A6802604A68426009890181704748
:10196000C402002000BFFEE710B540F2CF21C7201F
:10197000FFF72AFCFFF776FAFFF7FAFA642202492A
:10198000024800F0EBF810BD64A8002058A8002021
:1019900010B5FFF7D5FF0849086064204860FFF7DD
:1019A000B7FA40F2CF2140F21F30FFF73FFC024868
:1019B00003C8FFF70DFB10BD3000002010B5084B29
:1019C000084A02210848FEF723FD084B084A032174
:1019D0000848FEF71DFD084800F030FC10BD00006F
:1019E00014030020C43C000808030020400300202A
:1019F000F03C000834030020D002002010B501F0B4
:101A000029F800F05BF800F01FF84FF4E13000F027
:101A1000B8F800F097F800F061F8FFF7B9FFFFF7AA
:101A2000A3FF00F038F800F003F800F059FD10BDF6
:101A300010B5FFF70DFB0020024908704870887050
:101A400010BD00001000002010B5FFF72DFB10BDE9
:101A500000210C4A117051709170002005E00022A5
:101A60000849C91C0A54411C08B20728F7DB0021A9
:101A7000044A5172044A1170044A1170044A1170E8
:101A800070470000C4020020000000200100002078
:101A9000020000207047704730B50B4600240480D8
:101AA00044808280C4808360002104E00024856833
:101AB0006C544C1C21B29142F8DB30BD10B5FFF7DD
:101AC000F9FA10BD704710B5FFF7C2FFFFF7E2FF4C
:101AD000FFF7F8FFFFF772FF10BD000030B51648A2
:101AE00000684FF47A72B0FBF2F1B1F1807F01D35C
:101AF00001201DE021F07F40401E4FF0E0225061A8
:101B000050170F22002807DA13071D0E0B4B00F0A9
:101B10000F04241F1D5503E013071C0E084B1C5413
:101B200000BF00204FF0E0229061072010610020EC
:101B300008B100BFFEE730BDAC02002018ED00E0A8
:101B400000E400E010B5472140F2E730FFF70EFB5C
:101B5000472140F2E730FFF78BFB10BD30B50B4655
:101B60000024048044808280C4808360002105E0DA
:101B70000024856825F811404C1C21B29142F7DB06
:101B800030BD10B5044600F005F82046FFF7A0FB75
:101B900010BD000010B5002406E0002009490855DA
:101BA00009490855601C04B2642CF6DB642205491F
:101BB0000648FFF771FF642203490548FFF76CFFF1
:101BC00010BD000090A70020F4A7002078A70020F7
:101BD00084A7002000BFFEE77047000000F01F024E
:101BE00001219140024A430942F823107047000046
:101BF00080E200E070B5002100230F22C47804B316
:101C0000154C246804F4E064C4F5E064210AC1F1D1
:101C10000403CA40447804FA03F184781440214351
:101C200009010E4C0678A155047804F01F05012423
:101C3000AC4005786D11AD0005F1E025C5F8004117
:101C400009E0047804F01F050124AC40044D067837
:101C5000761145F8264070BD0CED00E000E400E090
:101C600080E100E002490143024A11607047000030
:101C70000000FA050CED00E01CB50446207818B908
:101C8000FFF75EFE00900CE02078012803D1FFF7FB
:101C90005BFE009005E02078022802D1FFF74CFEA1
:101CA000009064200190DDE9000100F053FE002067
:101CB0001CBD70B5044600252078802803DA012574
:101CC000204600F002F8284670BD10B503780022C7
:101CD00008210DE05406220E445C42EAD412445C12
:101CE00044F080044454445C1C44E3B24C1EE1B212
:101CF0000129EFDC42F08004447044781C44E3B2D4
:101D000043F08004447210BD704710B5FFF708FE21
:101D100008B1FFF79BF810BD08B5FFF707FE70B1DB
:101D20000121684600F048FD18B19DF8000000F060
:101D300007F800F0B1FC00F0A9FDFFF78DF808BD31
:101D400030B587B0044617E001A8FFF701FE01A8EF
:101D500007C804AB07C39DF8100071280AD10DF124
:101D60001300FFF789FF05462A468021712000F005
:101D7000B7FD00E000BF00BF204601F0C5F9002814
:101D8000E2D107B030BD000010B500F037FCC0F163
:101D90000100C4B2204600F01FFC00F02FFC0446F6
:101DA000214602A001F046FA10BD00004368616EB2
:101DB000676520524553505F5374617274496E6673
:101DC0006F3A25630A00000010B50B4800783028F0
:101DD00008D13120084908700846017807A001F0B1
:101DE00029FA07E03020044908700846017803A06A
:101DF00001F020FA10BD0000040000205B5B342CD1
:101E000025635D5D0D0A000010B500F035FB10BDC7
:101E10007047704770470146C88808B9012070476D
:101E20000020FCE701460020034A506820F44040AF
:101E300008435060704700000010024029B1064A74
:101E400052690243044B5A6104E0034A52698243D7
:101E5000014B5A61704700000010024029B1064A48
:101E6000D2690243044BDA6104E0034AD269824337
:101E7000014BDA61704700000010024029B1064AA8
:101E800012690243044B1A6104E0034A1269824357
:101E9000014B1A61704700000010024029B1064A48
:101EA00092690243044B9A6104E0034A92698243B7
:101EB000014B9A61704700000010024029B1064AA8
:101EC000D2680243044BDA6004E0034AD2688243DA
:101ED000014BDA6070470000001002400F480068B4
:101EE00040F001000D490860084640680C49084070
:101EF0000A494860084600680A49084007490860DE
:101F00000846006820F4802008600846406820F4F5
:101F1000FE0048604FF41F008860704700100240C8
:101F20000000FFF8FFFFF6FE30B50021002200247C
:101F300000232D4D6D6805F00C0121B1042905D059
:101F4000082923D105E0294D056022E0274D0560D1
:101F50001FE0254D6D6805F47012234D6D6805F482
:101F60008034022505EB92421CB9214D5543056092
:101F70000BE01D4D6D6805F400351DB11C4D55433A
:101F8000056002E0194D5543056002E0174D0560FC
:101F900000BF00BF144D6D6805F0F0010909154D33
:101FA0006B5C0568DD4045600F4D6D6805F4E061D0
:101FB000090A104D6B5C4568DD4085600A4D6D680F
:101FC00005F46051C90A0B4D6B5C4568DD40C56086
:101FD000054D6D6805F44041890B074D6B5CC56884
:101FE000B5FBF3F5056130BD0010024000127A0028
:101FF00000093D0092020020A202002010B5014617
:102000000022002300204A11012A02D1094C236832
:1020100006E0022A02D1074C236A01E0054C636AFC
:1020200001F01F02012494401C400CB1012000E08B
:10203000002010BD001002400248406800F00C0073
:10204000704700000010024001460020034A50681B
:1020500020F0F0000843506070470000001002407C
:102060001149096821F480310F4A1160114609684D
:1020700021F480211160B0F5803F03D0B0F5802FAE
:102080000ED106E00849096841F48031064A116022
:1020900007E00549096841F4A021034A116000E006
:1020A00000BF00BF70470000001002400146002042
:1020B000034A506820F4E060084350607047000015
:1020C0000010024001460020034A506820F460508E
:1020D00040EAC100506070470010024001490866A4
:1020E000704700000000424202460020044B58683E
:1020F00020F47C1042EA01031843014B58607047FA
:102100000010024001460020034A506820F00300FE
:1021100008435060704700000010024038B50020AE
:1021200000900024002500BF3120FFF767FF05461F
:102130000098401C00900098B0F5A06F01D0002DD1
:10214000F2D03120FFF75AFF08B1012400E000244B
:10215000204638BD2DE9F84311480078401C10494D
:10216000087008460078012818DB684600F008FB74
:1021700088B1BDF80000FEF7C1FB05460022094BFF
:10218000FEF7D2FA0746FEF7F2FB04460648074977
:10219000098840F82140002001490870BDE8F88313
:1021A0001F0000200000F03FB80300201A000020AC
:1021B00010B5044608480078302802D0312805D1EF
:1021C00000E007E0204600F015F803E003A001F06E
:1021D00031F800BF00BF10BD040000204552524F2F
:1021E000523AC2CBB2A8C6F7D1A1D4F1B4EDCEF326
:1021F0000000000010B504460123224621460B488A
:10220000FDF7B4FF0A4920680968FEF776F92060F7
:102210000123224621460748FDF7A8FF064920680A
:102220000968FEF76AF9206010BD00003403002041
:102230000C0000200803002008000020002100BF3F
:1022400003E0002240F82120491C0C29F9DB002280
:1022500002634263704700002DE9F0478246504612
:10226000FEF772FB8046094A094BFEF75DFA064607
:1022700032460B4600200749FEF7C8FA0446FEF72F
:1022800076FB05490860BDE8F0870000FCA9F1D2A3
:102290004D62603F00004E40240000202DE9FC5FAD
:1022A00007464FF0000A7C1E00260025A9460020A4
:1022B000019000BF0CE0314A52F826101346721C00
:1022C00053F82200FEF713F92D4941F82600761C39
:1022D000781EB042EFDC002526E04FF000091EE03A
:1022E000274B6A1C53F822101A4652F82500FEF7B5
:1022F00065FB12D2224951F82500FEF70CFB019034
:102300001F49681C51F8200041F825000198FEF78C
:10231000ECFA1B4A691C42F8210009F10109601E10
:10232000401B4845DCDC6D1C601EA842D5DC204605
:1023300004EBD0714910A4EB410131B904EBD07129
:1023400049100F4A52F821A015E0A04604EBD872BC
:102350005210521C0A4B53F82210A34604EBDB72B6
:10236000521053F82200FEF770F84FF080410090B1
:10237000FEF7F5F882465046BDE8FC9FF89F002026
:10238000B8A300202DE9F04106460025002400BF37
:1023900036E01F4850F824103046FEF705FB2ED8D3
:1023A000621E1B4B53F822101A4652F82400FEF707
:1023B00005FB24D2164B621C53F822101A4652F821
:1023C0002400FEF7FBFA1AD2F02D00DB1CE02046B9
:1023D000FEF78BFA8046681E0E4A52F820104046DF
:1023E000FEF785F807460C49FEF7E8FA07D22046C3
:1023F000FEF77BFA29466D1C064A42F82100641C50
:1024000042F20F708442C4DB00BF2846BDE8F08171
:10241000B8030020F89F0020008022452DE9F047F6
:102420001348D0F800904FF0000A002400BF0AE0E3
:102430000F4951F824004946FEF7C0FA02D20C4871
:1024400050F82490641C42F210708442F0DB48463D
:10245000FEF77AFA07464FF03332064BFEF764F97F
:102460000546FEF784FA82465046BDE8F087000034
:10247000B80300203333E33F70B505480068FEF72A
:1024800063FA044622460B4602A000F0D3FE70BD5C
:10249000240000205B5B322C25665D5D0D0A000088
:1024A0002DE9F04100BF00240025FFF7B7FF80466B
:1024B000FEF74AFA06460F4630463946FEF757FA07
:1024C0008046FFF75FFF04462046FFF7E7FE05461C
:1024D0002846FFF7C1FEFFF7CFFFBDE8F0810000FF
:1024E00010B5FEF719FE01200549087005A000F09F
:1024F000A1FE07A000F09EFE09A000F09BFE10BD0B
:102500001C0000207B7B322C48527D7D0D0A000090
:102510007B7B332C4852466C61677D7D0D0A000041
:102520007B7B342C46696C7465727D7D0D0A0000DE
:1025300010B504211248FFF7E4F950B911480078AA
:1025400000281AD101200F4908700FA000F072FE78
:1025500013E004210A48FFF7D4F901280AD10948F9
:102560000078012809D10020064908700DA000F06C
:1025700061FE02E010A000F05DFE0248007810BD90
:10258000000C01401D0000204552524F52A3BABA20
:10259000F4CEFCB5BCC1AAC3BBBDD3C9CFC5B60A76
:1025A00000000000494E464F3AB5BCC1AAD2D1C185
:1025B000ACBDD30A000000005741524E494E473A85
:1025C000B5BCC1AAD2FDBDC5D7B4CCACBCECB2E29F
:1025D000D2ECB3A30A00000010B1012808D103E037
:1025E0000021054A117004E00121034A117000E046
:1025F00000BF00BF704700001C00002001480078A9
:10260000704700001C00002010B51448007880B905
:102610001348007801281ED10020114908700022BB
:102620004FF400510F48FFF775F90FA000F002FEBC
:1026300011E00A48007801280DD10948007850B906
:10264000012007490870012241030648FFF762F99B
:102650000BA000F0EFFD0248007810BD1C00002028
:102660001E00002000100140494E464FA3BABAF4A4
:10267000CEFCD0C5BAC5D5B9CABEBFAACABC0A006D
:10268000494E464FA3BABAF4CEFCD0C5BAC5D5B9A7
:10269000CABECDA3D6B90A0010B5FFF749FF01287D
:1026A00000D110BDFFF7B0FF012800D1F9E7FFF717
:1026B00051FD1B491B4A128801EB8200FFF778FD90
:1026C00000F03AF817480088401C16490880084670
:1026D000008842F21071884220DBFFF7E1FE002003
:1026E0001049088010480078302802D0312814D1D1
:1026F0000AE00D480078401C0B4908700846017834
:102700000AA000F097FD08E030200749087008464D
:10271000017806A000F08EFD00BF00BF00BFC0E73B
:10272000B80300201A000020210000205B5B332C3E
:1027300025635D5D0D0A000070B50D480078401CF2
:102740000B4908700846007801280FDB09490A4A3E
:10275000128851F82200FEF7F7F8044622460B468D
:1027600006A000F067FD00200149087070BD000060
:1027700020000020B80300201A00002025660A006F
:1027800070B504460025012221460348FEF795FF57
:10279000C5B2284670BD000058A8002070B5044698
:1027A0000025012221460348FEF765FFC5B22846F1
:1027B00070BD000078A7002070B504460D460026C5
:1027C0002A4621460248FEF756FFC6B2304670BD83
:1027D00084A700207047000070B504460D461646D9
:1027E0002548005D4006000E2349085524B1012C00
:1027F0000CD0022C1ED113E002212048FFF781F8F3
:102800001D49095D08431C49085514E004211B4873
:10281000FFF777F81849095D0843174908550AE09A
:1028200001211748FFF76DF81349095D0843124964
:10283000085500E000BF00BF0F48005D1149095D69
:10284000884208D11048005D012804D1B04700201B
:102850000D4908550EE00848005D0A49095DC94365
:10286000C9B2884206D10848005D18B9A8470120BE
:102870000549085570BD00001300002000100140FC
:1028800000080140100000201600002010B50D487F
:102890000078401C0B4908700846007805280FDBBB
:1028A00000200870084A0949FFF796FF084A0949BD
:1028B0000120FFF791FF084A08490220FFF78CFF2B
:1028C00010BD000019000020891D0008111E00081D
:1028D000C91D0008131E0008091E0008151E000867
:1028E000FEB504460E46154601208DF80000042072
:1028F0008DF802008DF803408DF804608DF80550C6
:1029000000218DF806108DF807108DF80810684624
:1029100000F012F8FEBD000010B50446E1B2054813
:1029200000F0E1FB00BF4021024800F00FFB00284F
:10293000F9D010BD0038014070B50446002520468E
:10294000FFF7B7F90546002D03DD0A21204600F008
:1029500059FC70BD03B50248DDE9001206C00CBD8C
:102960003000002010B500F001F810BD0CB50020BB
:10297000019000903348006840F48030314908608D
:1029800000BF3048006800F4003000900198401CFF
:102990000190009818B90198B0F5A06FF1D12948BD
:1029A000006800F4003010B10120009001E0002028
:1029B00000900098012843D12348006840F010009F
:1029C000214908600846006820F0030008600846B6
:1029D000006840F0020008601A48406819494860E1
:1029E0000846406848600846406840F48060486097
:1029F0000846406820F47C1048600846406840F46F
:102A0000E81048600846006840F08070086000BF29
:102A10000C48006800F000700028F9D009484068B0
:102A200020F00300074948600846406840F0020073
:102A3000486000BF0348406800F00C000828F9D146
:102A40000CBD0000001002400020024010B500F054
:102A500001FA10BD10B51348006840F0010011499B
:102A6000086008464068104908400E49486008461A
:102A700000680E4908400B4908600846006820F4C9
:102A8000802008600846406820F4FE0048604FF44B
:102A90001F008860FFF766FF4FF000600449086080
:102AA00010BD0000001002400000FFF8FFFFF6FE1E
:102AB00008ED00E010B50121880700F055F9012864
:102AC00003D10121800700F04BF807480088401C23
:102AD0000549088008460088022804DB0020088099
:102AE00001200249087010BD2A00002028000020A3
:102AF00010B50121064800F037F918B1012104484A
:102B000000F02EF80348008800F064FB10BD0000C0
:102B1000000400409002002010B501210D4800F093
:102B200023F9012803D101210A4800F019F80A48C5
:102B30000088401C00B2084908800846B0F900002F
:102B4000B0F57A7F04DB002008800120034908707B
:102B500010BD0000000C00402C00002029000020C7
:102B6000CA430282704721B1028842F0010202800A
:102B700004E002884FF6FE731A400280704700009E
:102B800010B504466848844208D10121C014FFF7FB
:102B900095F90021E014FFF791F9C4E0B4F1804FFA
:102BA00008D101210846FFF769F900210120FFF74C
:102BB00065F9B8E05D48844208D101210220FFF7A1
:102BC0005DF900210220FFF759F9ACE05848844232
:102BD00008D101210420FFF751F900210420FFF75B
:102BE0004DF9A0E05348844208D101210820FFF7A5
:102BF00045F900210820FFF741F994E04E4884424E
:102C000008D101211020FFF739F900211020FFF72A
:102C100035F988E04948844208D101212020FFF796
:102C20002DF900212020FFF729F97CE04448844257
:102C300008D101214014FFF741F900216014FFF78A
:102C40003DF970E03F48844209D10121C804FFF7F3
:102C500035F900214FF40020FFF730F963E03A48DE
:102C6000844209D101210805FFF728F900214FF41A
:102C70008010FFF723F956E03448844209D101213E
:102C80004805FFF71BF900214FF40010FFF716F974
:102C900049E02F48844208D101214020FFF7EEF897
:102CA00000214020FFF7EAF83DE02A48844208D19D
:102CB00001218020FFF7E2F800218020FFF7DEF8F5
:102CC00031E02548844208D101218015FFF7D6F86C
:102CD0000021A015FFF7D2F825E02048844209D151
:102CE00001210804FFF7EAF800214FF48030FFF7D4
:102CF000E5F818E01A48844209D101214804FFF799
:102D0000DDF800214FF40030FFF7D8F80BE015484C
:102D1000844208D101218804FFF7D0F800214FF444
:102D20008020FFF7CBF810BD002C014000040040CC
:102D300000080040000C004000100040001400405B
:102D400000340140004C014000500140005401405B
:102D500000180040001C00400020004000400140DE
:102D6000004401400048014030B5024600200023E5
:102D70000024158A05EA0103958905EA010413B1C7
:102D80000CB1012000E0002030BD1AB183890B4353
:102D9000838102E083898B438381704782884FF669
:102DA0008F731A40828082880A43828070470000B5
:102DB000002202881D4B98420ED01D4B98420BD02A
:102DC000B0F1804F08D01B4B984205D01A4B984267
:102DD00002D01A4B984204D14FF68F731A404B8899
:102DE0001A43174B984207D0164B984204D04FF61F
:102DF000FF431A40CB881A4302808B8883850B8857
:102E000003850A4B98420BD0094B984208D00E4BD1
:102E1000984205D00D4B984202D00D4B984201D1FB
:102E20000B7A03860123838270470000002C014047
:102E3000003401400004004000080040000C004045
:102E400000100040001400400040014000440140D8
:102E5000004801400448006820B103480068401E53
:102E60000149086070470000A802002008B5002052
:102E7000009040F22551204800F075F858B1252007
:102E8000FEF7ACFE1C4800F029F9C0B200909DF896
:102E9000000000F0ABF90821174800F057F80128AE
:102EA00006D10821144800F02DF8134800F016F957
:102EB00040F22771104800F056F8E0B140F2277157
:102EC0000D4800F028F82520FEF788FE6846FFF739
:102ED00065FC9DF80010084800F005F90748FEF76A
:102EE0009AFF40B1002006490870002240F2277185
:102EF000014800F062F808BD0038014078A70020C2
:102F00002E00002001F40072B2F5007F00D100BF56
:102F1000CA430280704710B50022002340F66A14AD
:102F2000A14200D100BF0A1201249440A3B2DC43A5
:102F3000048010BD21B1828942F40052828104E0F4
:102F400082894DF6FF731A40828170470246002045
:102F5000B1F5007F00D100BF13880B400BB10120F9
:102F600000E00020704770B50246002400230025D1
:102F7000002040F66A16B14200D100BFC1F34215ED
:102F800001F01F03012606FA03F3012D02D19689F1
:102F9000334006E0022D02D1168A334001E0968AC2
:102FA00033400C12012606FA04F41688344013B19B
:102FB0000CB1012000E0002070BDF0B503460024F4
:102FC00000260025002040F66A17B94200D100BF54
:102FD0001846C1F3421401F01F06012707FA06F54F
:102FE000012C01D10C3004E0022C01D1103000E0A2
:102FF00014301AB107682F43076002E00768AF4337
:103000000760F0BD2DE9F04786B005460E46002466
:10301000A24600BFA1460027B08900B100BF2F46DD
:103020002C8A4CF6FF700440F08804432C82AC8953
:103030004EF6F3100440B088318908437189084383
:103040000443AC81AC8A4FF6FF400440B08904438E
:10305000AC8201A8FEF768FF1F48874202D1DDF865
:1030600010A001E0DDF80CA0A88900F4004040B1F8
:103070000AEBCA0000EB0A1031684900B0FBF1F816
:1030800007E00AEBCA0000EB0A1031688900B0FBC8
:10309000F1F86420B8FBF0F004012009642101FB81
:1030A0001089A88900F4004040B1322000EBC9002B
:1030B000B0FBF1F000F00700044308E0322000EB21
:1030C00009106421B0FBF1F000F00F0004432C81E3
:1030D00006B0BDE8F087000000380140014688884E
:1030E000C0F308007047C1F30802828070474FF4B4
:1030F0001651016000218180C18001810C21418134
:10310000002181817047000070B5044600261B4DE8
:103110001B48007810B3802C1CDB1A4800782C5414
:1031200018480078401C1749087017480078401E5E
:10313000154908700846007800281CDC1148007802
:103140000A2818D1284600F021F8064600200C492C
:10315000087010E000200A4908700CE0802C0ADAA0
:1031600009200949087001200649087003480470C5
:10317000012003490870304670BD0000C4020020E1
:1031800001000020000000200200002030B50146B0
:103190000C784B78E018C4B202220BE0885C204423
:1031A000C4B203F00105885C65F3DF1088545B103E
:1031B000501CC2B2092AF1DB04F07F004D7A05F001
:1031C0007F05A84201D0002030BD0120FCE700BFF0
:1031D000FEE7000031B50024012269460248FEF7EF
:1031E000B5FAC4B2204638BD58A8002031B5002435
:1031F000012269460248FEF785FAC4B2204638BD6E
:1032000084A7002070B504460D4600262A462146B4
:103210000648FEF777FAC6B2642E04DA044800784E
:1032200008B9FEF7B9FA304670BD000078A7002053
:103230002E0000200FB4054B10B503A9044A0298D4
:1032400000F0DAF810BC5DF814FB0000FF3A00084B
:10325000C002002002E008C8121F08C1002AFAD1EB
:1032600070477047002001E001C1121F002AFBD106
:10327000704700002DE9FF5F82B00021DDE90430D6
:10328000020DDDF840B0034318D044F61050A2F20E
:10329000FF3242431514119801281FD0A5EB0B00F3
:1032A000401C5FEA000A4FF000064E4FDFF83891ED
:1032B000B046504615D5CAF1000413E01198012418
:1032C0004AA3012801D16FEA0B010298119AC0E9C3
:1032D0000031C0E9024206B0BDE8F09FCBF100002A
:1032E000DFE704460021404A491842EB0450CDE98B
:1032F000001012E0E00707D032463B464046494600
:10330000FDF712FA8046894632463B46104619467A
:10331000FDF70AFA06460F466410002CEAD1DDE9F3
:103320000401DDE90023BAF1000F06DAFDF7FCF92C
:1033300042464B46FDF7F8F905E0FDF767FA4246CD
:103340004B46FDF763FA04460E460022284BFDF774
:1033500053FC03D84FF0FF30014607E00022254B15
:1033600020463146FDF739F9FDF72EFC102409E01F
:10337000002C0ADB0A220023FDF740FB039B3032BE
:103380001A55641E50EA0102F2D1641C039AC4F17A
:1033900011031444119A012A03D0012208430DD1CC
:1033A0000AE0084304D000204FF0110B119072E79F
:1033B000A3EB0B056D1E0DE05B4504DD4FF0000235
:1033C00005F1010504E003DA4FF00002A5F1010563
:1033D000002AECD002981199C0E90231C0E90045F9
:1033E00079E70000000014400000F03F30000000CA
:1033F0000000F0430000E03F2DE9FF4F95B09A46F2
:10340000884606460025EEE1252877D10024274688
:10341000F94A0121039400E0044316F8013F203BE0
:1034200001FA03F01042F7D130782A2811D06FF05A
:103430002F033078A0F13002092A16D8039A44F0FD
:10344000020402EB820203EB42021044761C03905A
:10345000EFE758F8042B0392002A03DA504244F4B1
:103460000054039044F00204761C30782E2816D1C4
:1034700016F8010F44F004042A280DD06FF02F0233
:103480003078A0F13003092B09D807EB870302EB52
:103490004303C718761CF3E758F8047B761C307892
:1034A0006C280FD006DC4C2817D068280DD06A286D
:1034B00014D104E0742810D07A280FD10DE044F420
:1034C00000140AE044F4801401E044F440147278DB
:1034D000824202D104F58014761C761C307866286E
:1034E0000BD013DC582877D009DC002875D045288C
:1034F000F6D04628F4D047281AD193E118E0632883
:1035000035D0642879D0652812D18BE1702873D02A
:1035100008DC6728F1D069286FD06E280DD06F289D
:1035200006D1ACE073282CD0752874D0782853D0FD
:103530005246179990476D1C54E1C4F3025002287B
:1035400009D003280DD0D8F8001004280DD00D6044
:1035500008F1040846E1D8F80010EA17C1E9005262
:10356000F6E7D8F800100D80F2E70D70F0E718F8D4
:10357000041B8DF8001000208DF80100EB4601209F
:1035800003E058F804BB4FF0FF3061074FF0000133
:1035900002D40DE009F101018946B9420FDA8145F3
:1035A000F8DB1BF809100029F4D108E009F101014A
:1035B00089468142FADB1BF809100029F6D10398ED
:1035C0005346A0EB090721463846179A00F080FAC7
:1035D000284400EB090507E044E008E10DE01BF892
:1035E000010B524617999047B9F10109F7D253469A
:1035F00021463846179AF2E039E00A21C4F3025214
:103600004FF0000B0091022A06D058F8040BC117A6
:10361000032A09D00AE023E008F1070020F007029E
:10362000F2E80201904605E000B2C117042A01D178
:1036300040B2C117002906DA0A460021404261EB78
:1036400002012D2202E0220504D52B228DF8042050
:10365000012203E0E20701D02022F7E7914657E07C
:103660000A2100E010214FF0000B00910BE0102127
:103670004FF0000B44F004040827009103E00820F9
:103680004FF0000B0090C4F30252022A05D058F804
:10369000040B0021032A08D008E008F1070020F0FD
:1036A0000702F2E80201904603E080B2042A00D14A
:1036B000C0B24FF0000922072AD53278702A07D00D
:1036C000DDF800C08CF0100C5CEA0B0C05D00EE0AD
:1036D00040228DF80420012208E050EA010306D0C0
:1036E00030238DF804308DF8052002229146009B8E
:1036F00083F0080353EA0B030AD150EA010201D117
:10370000620705D530228DF804204FF001097F1E95
:103710003278582A04D039A20C920CAA02920BE0FB
:103720003BA2F9E75B46009AFDF768F90C9B9B5CAE
:10373000029A521E0292137050EA0102F2D10298CC
:1037400004A9081A00F1200B600702D524F4803484
:1037500000E001275F4502DDA7EB0B0000E0002041
:1037600000EB0B01009003984944401A0390E003DA
:1037700006D453462146179A039800F0A9F9054448
:10378000002706E001A85246C05D179990476D1CBE
:103790007F1C4F45F6DBE0030CD553462146179AB4
:1037A000039800F095F9054404E03020524617993B
:1037B00090476D1C0099481E00900029F5DC08E038
:1037C0000298029952460078491C02911799904735
:1037D0006D1CBBF10001ABF1010BF1DC5BE100F012
:1037E00065F90544761C307800287FF40DAE19B0D9
:1037F0002846BDE8F08F000009280100303132333F
:10380000343536373839616263646566000000001C
:103810003031323334353637383941424344454606
:1038200000000000600700D4062708F1070020F020
:103830000700F0E80223804603F0004C5FEA0C002A
:1038400001D097A009E0200501D596A005E0E0078A
:1038500001D095A001E0AFF24C001390307823F036
:10386000004365280CD006DC452809D046281DD029
:1038700047287FD13BE0662818D067287AD136E008
:103880000021112F01DB112000E0781CCDE900019F
:1038900004A90CA8FFF7EEFCDDE90D010C9A4FF02E
:1038A000000B07F10109109200914EE04FF000402B
:1038B0000097CDE9011004A90CA8FFF7DBFCDDE9B6
:1038C0000D020C9B0F994FF0000B91461093009244
:1038D00011B9791C00EB0109B7EB090003D4C0F161
:1038E000FF3B07F10109A9EB0700019042E0012F1E
:1038F00000DA01270021112F01DD112000E03846F8
:10390000CDE9000104A90CA8FFF7B4FCDDE90D0125
:103910000C9A00914FF0000BB946109221070FD47A
:10392000009A4A4503DA914601E0A9F10109B9F18B
:10393000010F05DD109AA9F10101515C3029F4D085
:10394000B84202DA10F1040F03DA0121CDE90110C7
:1039500010E0002803DC8344A9EB000102E0411CD5
:10396000494500DD8946A0EB0B00401C01904FF05B
:1039700000400290200705D40198484502DB4FF033
:10398000FF30019000208DF84B0002980DF14B079D
:10399000B0F1004F25D002200C902B200D90029802
:1039A00000280CDA404202902D200D9007E00A21F9
:1039B0000298FDF70DF83031029007F8011D0C99BF
:1039C000481E0C900029F2DC02980028EFD1791EE5
:1039D0000D980870307800F0200040F0450007F89E
:1039E000020D11A8C01BC01D02901398007800B1F1
:1039F000012000EB0901019801EBE07102980144FC
:103A00000398401A401E0390E00306D45346214613
:103A1000179A039800F05CF805441398007818B1E1
:103A20005246179990476D1CE00323D55346214613
:103A3000179A039800F04CF805441BE0BBF1000F07
:103A400007DB0098584504DD1098179910F80B0013
:103A500001E0179930205246904701980BF1010B75
:103A6000401E05F10105019004D12E205246179900
:103A700090476D1CB9F10001A9F10109DEDC05E0F8
:103A800017F8010B5246179990476D1C0299481E72
:103A900002900029F4DC53462146179A03989EE6CB
:103AA0002D0000002B000000200000002DE9F04157
:103AB000044600251E461746880404D405E039460E
:103AC0002020B0476D1C641EF9D52846BDE8F08162
:103AD0002DE9F041044600251E469046C80301D555
:103AE000302700E02027880404D505E04146384609
:103AF000B0476D1C641EF9D52846BDE8F08170B54D
:103B000004460D46E0B2FEF707FF204670BD0000F8
:103B1000FDF7D9FFFDF772FF04A0FFF78BFB03E071
:103B2000FEF7FAF8FEF7F1F8FAE70000496E69745B
:103B30002053797374656D20686173206265656ECA
:103B40002066696E69736865642E0D0A00000000C6
:103B500003000000000000001D508E782D2BED3F6B
:103B6000AE1B23D71299F7BF1D508E782D2BED3F3A
:103B70000300000000000000000000000000F03F13
:103B8000AE1B23D71299F7BFB69C1CF15A56EA3FD9
:103B90000300000000000000A9D198A13411EE3FFD
:103BA000704CF6792295E2BFA9D198A13411EE3F6D
:103BB0000300000000000000000000000000F03FD3
:103BC000704CF6792295E2BF51A331436922EC3F54
:103BD0000300000000000000A9D198A13411EE3FBD
:103BE000D897C78D2B53F83FA9D198A13411EE3F38
:103BF0000300000000000000000000000000F03F93
:103C0000D897C78D2B53F83F51A331436922EC3F1E
:103C1000010000000300000001000000000000009F
:103C20006A5B789A3B86BB3F000000000000000002
:103C30000000000000000000000000000000F03F55
:103C40000000000000000040000000000000F03F05
:103C5000B108FAAF2085EC3F000000000000000032
:103C60000000000000000000010000000300000050
:103C70000100000000000000000000000000F03F14
:103C80000000000000000000000000000000000034
:103C9000000000000000F03F5AFC9C087C77F0BF59
:103CA000E45AECBC2B64DD3F000000000000F03F54
:103CB0000000000000000000000000000000000004
:103CC000020000000000803F00000000000080BFF4
:103CD0004908FD3FF7247ABF0000803F0000000044
:103CE000000080BFF1C6FF3F008E7FBF03000000D1
:103CF0000000803F74FAFFBF0000803F4891FF3F03
:103D000021277FBF0000803FA7F5FFBF0000803F55
:103D10005290FE3F43267DBF0000803FCCB2FFBFE4
:103D20000000803F6972FD3F25EC7ABF4C3D0008E2
:103D300000000020C40200006C0C0008F43E0008E3
:103D4000C40200206CAA000064320008413231C075
:103D5000095F46A0384EC1AD3B1A0102110217306F
:103D600014088008182F097F09FD09780AF10A67ED
:103D70000BDA0B490CB30C190D790DD40D290E7803
:103D80000EC00E020F3C0F6F0F9B0FBF0FDB0FEF2C
:103D90000FFB0FFF041AEF0C1ABF141A6F1C1C0242
:103DA0000FC0281C290ED4341810190DB30C490C5F
:103DB000DA0B670BF10A780AFD58111A0960102313
:103DC000087F07FF068006020687050E0598042572
:103DD00004B6034C03E60286022B02D60187013F9C
:103DE00001FD12C312901264124012241210320408
:103DF0001A04081A24101A641812C312FD1A3F2854
:103E00001CD6012B341810E6024C03B60325049887
:103E1000040E05870502580564FF067F071AFFFC9C
:103E2000095E0221125212A412F6102B48019901C8
:103E3000EB013D028F02E10233038503D70329041E
:103E40007B04CD041E057005C20514066606B8067F
:103E50000A075C07AE071831085108A308F50847A0
:103E6000099909EB093D0A8F0AE10A330B840BD645
:103E70000B280C7A0CCC0C1E0D700DC20D140E66A6
:103E80000EB70E090F5B0FAD661AAD081C090FB710
:103E9000141C140EC2201C1E0DCC2C1C280CD63851
:103EA0001C330BE1441C3D0AEB501C4709F55C1325
:103EB00051081B08AE6C1C0A07B8781C1406C28493
:103EC0001C1E05CD901C2904D79C1C3303E1A81CA3
:103ED0003D02EBB41C4801F6C072522D01020304EE
:103EE000047009060708090204060884A24A046946
:043EF0001E4100006F
:0400000508000131BD
:00000001FF
